:020000040800F2
:10000000380700206D01000875010008770100081D
:10001000790100087B0100087D0100080000000054
:100020000000000000000000000000007F01000848
:10003000810100080000000083010008850100081C
:100040008701000887010008870100088701000870
:100050008701000887010008870100088701000860
:100060008701000887010008870100088701000850
:100070008701000887010008870100088701000840
:100080008701000887010008870100088701000830
:100090008701000887010008870100088701000820
:1000A0008701000887010008870100088701000810
:1000B0008701000887010008000000008701000890
:1000C0008701000800000000000000008701000810
:1000D0000000000079060008870100080000000009
:1000E00087010008870100088701000800F002F876
:1000F00000F02CF80AA090E8000C82448344AAF196
:100100000107DA4501D100F021F8AFF2090EBAE893
:100110000F0013F0010F18BFFB1A43F0010318473B
:10012000B8070000C80700000023002400250026AF
:10013000103A28BF78C1FBD8520728BF30C148BF4A
:100140000B6070471FB51FBD10B510BD00F031F832
:100150001146FFF7F7FF00F07DFB00F04FF803B406
:10016000FFF7F2FF03BC00F057F800000948804792
:1001700009480047FEE7FEE7FEE7FEE7FEE7FEE789
:10018000FEE7FEE7FEE7FEE704480549054A064BA1
:100190007047000021060008ED000008380100202B
:1001A00038070020380300203803002070477047CC
:1001B0007047754600F02CF8AE4605006946534678
:1001C00020F00700854618B020B5FFF7DDFFBDE839
:1001D00020404FF000064FF000074FF000084FF0AE
:1001E000000BAC46ACE8C009ACE8C009ACE8C009FB
:1001F000ACE8C00921F007018D46704710B50446F0
:10020000AFF300802046BDE81040FFF7A8BF000014
:10021000004870470000002001491820ABBEFEE7EF
:10022000260002007047000080B540F2600CC2F268
:10023000000CDCF800E00D2802D0BEF1630F06D3FD
:1002400040F23410C2F2000001230370002048F293
:100250001F510EF10103C5F2EB11A3FB0112A0F136
:100260004101C9B21A2940F2640138BF2030C2F2FC
:10027000000101F80E005009642200FB1230002238
:10028000CA54CCF8000080BDF0B581B043F60C052F
:10029000C4F20105298840F69C07044621F4005069
:1002A0000026C0F60007288057F83610204600F0D8
:1002B000E3FAA0B90136012EF6D040F26000C2F296
:1002C0000000002101602888022140F400502880AD
:1002D00040F23410C2F20000017001B0F0BD40F2F3
:1002E0006000C2F2000000210160288807EBC6010F
:1002F000496840F400502880884740F23410C2F228
:1003000000000321017000F047F801B0F0BD0000CB
:1003100010B540F23414C2F200042078022807D04D
:1003200001280AD0002818BF10BD00F07FF801E0B6
:1003300000F00AF80320207010BD40F26400C2F201
:100340000000FFF7A1FF10BD80B582B040F22C1C69
:1003500040F2C80240F2301343F60000C2F2000C33
:1003600006A1C2F20002C2F20003C4F20100CDF8FD
:1003700000C000F0E3F902B080BD00BF436F6D6DB7
:10038000616E64206973206E6F7420617661696CA0
:1003900061626C650D3E000080B582B040F22C1C9D
:1003A00040F2C80240F2301343F60000C2F2000CE3
:1003B00006A1C2F20002C2F20003C4F20100CDF8AD
:1003C00000C000F0BBF902B080BD00BF3E000000DD
:1003D000F0B581B040F2C80440F2301543F6000693
:1003E00040F22C17C2F20004C2F20005C4F201066A
:1003F000C2F2000709A1304622462B46009700F0C2
:100400009DF940F6AC01C0F60001304622462B466D
:10041000009700F093F901B0F0BD00BF3E5061724B
:10042000697479204572726F720D0000F0B581B069
:1004300040F2C80440F2301543F6000640F22C1793
:10044000C2F20004C2F20005C4F20106C2F20007C3
:1004500009A1304622462B46009700F06FF940F67E
:10046000AC01C0F60001304622462B46009700F052
:1004700065F901B0F0BD00BF3E48656C6C6F20743B
:1004800068697320697320636D640D0040F2301158
:10049000C2F20001086848F21F52C5F2EB12A0FB3D
:1004A00002235A09642302FB130240F2C80CC2F271
:1004B000000C1CF802000A60002808BF7047531C9B
:1004C0000B6000210CF8021070470000A1B140F64B
:1004D0000041C4F20101884224D040F60001C4F278
:1004E000010188422FD141F21800C4F202000168D4
:1004F00041F004010160704740F60041C4F201017F
:10050000884218D040F60001C4F20101884218BFA9
:10051000704741F21800C4F20200016821F00401A2
:100520000160704741F21800C4F20200016841F016
:1005300008010160704741F21800C4F2020001682E
:1005400021F0080101607047002AC2680CBF22EA4E
:1005500001011143C160704780B500F001F880BD12
:1005600082B041F204000021C4F202000191009126
:1005700050F8041C41F4803140F8041C50F8041C6D
:1005800001F400310091019901310191009919B9EB
:100590000199B1F5A06FF1D150F8041C890354BF43
:1005A0000021012100910099012936D142F2000178
:1005B000C4F202010A6842F010020A600A6822F0DE
:1005C00007020A600A6842F002020A6001680160DC
:1005D00001680160016841F480610160016821F4F3
:1005E0007C110160016841F4E811016050F8041CBD
:1005F00041F0807140F8041C50F8041C8901FBD5BF
:10060000016821F003010160016841F0020101600D
:10061000016801F00C010829FAD102B0704700000E
:1006200080B541F20000C4F202000168002241F0EE
:10063000010101604168CFF6FF021140416001688D
:100640004FF6FF72CFF6F66211400160016821F4A7
:1006500080210160416821F4FE0141604FF41F01D7
:100660008160FFF779FF4EF60850CEF200004FF0A0
:100670000061016080BD000010B543F60004C4F2C3
:1006800001042088000604D5FFF700FF002818BFEA
:10069000A0802088800603D5A088C0B2FFF7C4FDE3
:1006A0002088C00718BFFFF793FE10BD43F60C006B
:1006B000C4F20100018841F400510180018841F039
:1006C00088010180018841F024010180018841F402
:1006D000807101807047000010B50420C4F2010051
:1006E000016840F6004441F00401C4F201040160D5
:1006F0002046962100F06AF82046872100F066F82F
:1007000041F21800C4F20200016841F48041016026
:1007100043F60C00C4F20100018821F480510180ED
:10072000018821F480610180818821F44051818019
:1007300040F6A26120F8041C10BD0000B0B5DDF841
:1007400010C0D3F800E0DCF80040A64502BF00244A
:10075000CCF800401C60DCF800E048F21F54C5F201
:10076000EB14AEFB04456C09642504FB15E5CCF8DD
:10077000005091F800E0BEF1000F11D0013100BF30
:10078000DCF80040632C0BD8155DADB9651CCCF8C6
:10079000005002F804E011F801EBBEF1000FEFD1B8
:1007A0000188090658BFB0BD19684D1C1D60535C17
:1007B000838000205054B0BDFEE700004EF20410CC
:1007C000CEF20000202101607047000080B51C229D
:1007D00002EA81024FF00F0C0B0748BF0430D0F83B
:1007E00000E00CFA02F32EEA03030360C1F30311E5
:1007F000036891401943016080BD000010B540F6C8
:100800000004C4F2010420460121FFF75FFE04F555
:1008100080600121FFF75AFE20461121FFF7D6FF25
:1008200020468221FFF7D2FF10BD000080B540F6C0
:100830000000C4F2010002210022FFF785FE80BD06
:1008400080B540F60000C4F2010002210122FFF74A
:100850007BFE80BD00F00CF8FFF7D0FFFFF73CFFF8
:10086000FFF724FF62B600BFFFF752FDFCE7000070
:1008700080B5FFF7A3FF80BD02780B789A420BD1B9
:1008800001310130002A04BF0120704710F8012B0C
:1008900011F8013B9A42F5D000207047D1080008BA
:1008A00041080008C90800082D0800083E506C6582
:1008B00061736520656E74657220796F757220634F
:1008C0006F6D6D616E640D3E006C65645F6F666692
:1008D000006C65645F6F6E00E8080008000000208F
:0808E0003807000028010008A0
:040000050800016D81
:00000001FF
